:100000000C9462000C94C8030C94A1030C948A0015
:100010000C948A000C945C060C948A000C948A0060
:100020000C948A000C948A000C948A000C948A0028
:100030000C948A000C9495050C948A000C948A0008
:100040000C94010A0C948A000C9435040C940F044F
:100050000C948A000C948A000C948A000C948A00F8
:100060000C9467040C948A00000000002400270010
:100070002A0000000000250028002B0000000000DE
:1000800023002600290004040404040404040202DA
:100090000202020203030303030301020408102007
:1000A0004080010204081020010204081020000012
:1000B0000008000201000003040700000000000027
:1000C0000000361411241FBECFEFD8E0DEBFCDBF35
:1000D00011E0A0E0B1E0E8E1F0E302C005900D928C
:1000E000A435B107D9F723E0A4E5B1E001C01D9222
:1000F000A338B207E1F710E0C2E6D0E004C02197D0
:10010000FE010E94BB16C136D107C9F70E94900AB2
:100110000C940A180C9400000895CF92DF92EF928D
:10012000FF920F931F93CF93DF936C017A018B01A2
:10013000C0E0D0E0CE15DF0581F0D8016D918D01D2
:10014000D601ED91FC910190F081E02DC601099559
:10015000892B11F02196EECF7E01C701DF91CF915F
:100160001F910F91FF90EF90DF90CF90089585ED54
:100170008093BC008091BC0084FDFCCF10925A019A
:10018000089540917602262F30E0240F311D213250
:100190003105DCF420915A012430C9F4FC0180E0DF
:1001A00090E0861758F4309176022191DC01AA5A2A
:1001B000BD4FA30FB11D2C930196F3CF8091760212
:1001C000680F6093760280E0089581E0089582E0F0
:1001D0000895E0916101F0916201309729F0109249
:1001E0005C0110925B0109940895CF93DF93AC01F9
:1001F000E0915F01F09160013097F1F090915E0124
:1002000080915D019817C0F090E0292F30E026170B
:10021000370754F4D901AA5CBD4FEA01C20FD31FBE
:1002200028812C939F5FF1CF10925E0160935D0156
:10023000CB01DF91CF910994DF91CF91089508957B
:10024000E0915E0180915D01E81730F4F0E0EA5C36
:10025000FD4F808190E008958FEF9FEF089590917A
:100260005E0180915D01981750F4E92FF0E0EA5C9F
:10027000FD4F208130E09F5F90935E0102C02FEF21
:100280003FEFC901089580915D0190E020915E01EA
:10029000821B91090895CF93DF93CB01EA01642F6C
:1002A0000E94C100CE01DF91CF910895CF93DF93DB
:1002B0001F92CDB7DEB7698361E0CE0101960E943F
:1002C000C10081E090E00F90DF91CF9108950895F3
:1002D00080E090E00895809173018F5F80937301B7
:1002E0000895809174018F5F8093740108958091C7
:1002F0007501909176010196909376018093750136
:1003000008958091A6019091A701019731F4609121
:10031000A50188E693E00E9456018091A601909184
:10032000A7019C012B7F2330310511F0C89741F4C0
:1003300043E050E060E971E088E693E00E944B0101
:100340008091A6019091A7018830910511F0449702
:1003500041F444E050E060E971E088E693E00E94F7
:100360004B018091A6019091A7014E9741F449E07D
:1003700050E060E971E088E693E00E944B018091D3
:10038000A6019091A701889741F449E050E069E700
:1003900071E088E693E00E944B018091A601909164
:1003A000A701459751F445E150E060E971E088E626
:1003B00093E00E944B01109290018091A6019091D0
:1003C000A7010A9781F444E050E060E971E088E613
:1003D00093E00E944B0110927801109277011092E5
:1003E000A7011092A6018091A6019091A7010B97F9
:1003F00071F442E050E06CE671E088E693E00E9420
:100400004B0110926C011092A7011092A6018091ED
:10041000A6019091A7010C9771F443E050E069E6C2
:1004200071E088E693E00E944B01109269011092FE
:10043000A7011092A6018091A6019091A70186368E
:10044000910551F46091720188E693E00E94560193
:100450001092A7011092A60108950F931F93CF93B6
:10046000DF9301E010E080915D0120915E01821731
:1004700031F190E0821B9109049761F41092B1016F
:100480001092B0011092B3011092B20110938F013B
:1004900000938E01C091B201D091B301CE010196BB
:1004A0009093B3018093B20188E693E00E942F01FC
:1004B000CC0FDD1FCA55DE4F99838883D4CFDF91DF
:1004C000CF911F910F9108950E94FE178BEC92E03F
:1004D0000E94D60621E0892B09F420E0822F08959E
:1004E000EF92FF920F931F93CF937C018B01C0E19A
:1004F000612F661F6627661FF70182810E945B08D5
:10050000F70180810E94320861E0892B09F060E0E8
:10051000F70180810E945B08000F111FC15041F755
:10052000CF911F910F91FF90EF900895CF93DF939C
:1005300082E00E943208EC0183E00E9432088C23A2
:100540009D23019719F481E080932902DF91CF91D7
:100550000895CF92DF92EF92FF920E942F096B01D4
:100560007C01609332027093330280933402909343
:10057000350282E00E943208892B69F060E088E051
:100580000E945B08C0922E02D0922F02E0923002AD
:10059000F09231020CC0C0922A02D0922B02E0925B
:1005A0002C02F0922D0261E088E00E945B08C0906E
:1005B0002E02D0902F02E0903002F0903102409154
:1005C0002A0250912B0260912C0270912D024C1541
:1005D0005D056E057F0500F580916E0190916F01BC
:1005E000A0917001B09171018C0D9D1DAE1DBF1DBC
:1005F000841B950BA60BB70B80936E0190936F0134
:10060000A0937001B093710110922E0210922F02EC
:100610001092300210923102FF90EF90DF90CF9055
:100620000895CF92DF92EF92FF920F931F93CF9393
:10063000DF93EC01E62E88E0F82E93ECC92ED12C46
:1006400061E088810E948A08C6010197F1F7E0FE07
:1006500002C060E001C061E089810E948A0803EC69
:1006600010E0C6010197F1F760E088810E948A08D6
:10067000C6010197F1F7E694FA94F110E1CF61E039
:1006800088810E948A0860E089810E948A08C801E6
:100690000197F1F760E088810E948A08C8010197FC
:1006A000F1F789810E943208F82E811104C061E0BF
:1006B00089810E948A0803EC10E0C8010197F1F7D4
:1006C00061E088810E948A08C8010197F1F781E002
:1006D000F11001C080E0DF91CF911F910F91FF9049
:1006E000EF90DF90CF9008950F931F93CF93DF93F8
:1006F0008C0161E0FC0181810E948A08C3ECD0E09A
:10070000CE010197F1F760E0F80180810E948A082C
:10071000CE010197F1F760E0F80181810E948A081B
:100720002197F1F7DF91CF911F910F91089561E02B
:10073000FC0181810E948A0883EC90E00197F1F727
:1007400008951F920F920FB60F9211242F933F938B
:100750004F935F936F937F938F939F93AF93BF93C9
:10076000EF93FF93E0910201F09103010995FF914E
:10077000EF91BF91AF919F918F917F916F915F9119
:100780004F913F912F910F900FBE0F901F90189592
:100790001F920F920FB60F9211242F933F934F93F6
:1007A0005F936F937F938F939F93AF93BF93EF93D9
:1007B000FF93E0910001F09101010995FF91EF9104
:1007C000BF91AF919F918F917F916F915F914F9169
:1007D0003F912F910F900FBE0F901F901895823070
:1007E000E8F4E82FF0E0EE0FFF1FE050FF4F7183B9
:1007F0006083813041F0809169008C7F482B409369
:100800006900E89A089580916900837F440F551F1D
:10081000440F551F482B40936900E99A08951F9291
:100820000F920FB60F9211242F933F934F935F9324
:100830006F937F938F939F93AF93BF93EF93FF93A8
:100840008BEC92E00E94A107FF91EF91BF91AF91D5
:100850009F918F917F916F915F914F913F912F91D8
:100860000F900FBE0F901F9018951F920F920FB60A
:100870000F9211242F938F939F93EF93FF93E09107
:10088000DB02F091DC028081E091E102F091E20272
:1008900082FD12C090818091E4028F5F8F7320915E
:1008A000E502821751F0E091E402F0E0E553FD4FDC
:1008B000958F8093E40201C08081FF91EF919F9119
:1008C0008F912F910F900FBE0F901F9018951F9230
:1008D0000F920FB60F9211242F933F934F935F9374
:1008E0006F937F938F939F93AF93BF93EF93FF93F8
:1008F0008091B900887F803609F49CC068F5883201
:1009000009F45BC090F4803109F454C038F48823B2
:1009100009F4F6C0883009F44DC0F6C0883109F4F6
:100920004CC0803209F45DC0EFC0803409F468C067
:1009300048F4803309F455C0883309F0E5C080934A
:100940009902D8C0803509F44FC0883509F45DC0DC
:10095000883409F0D9C0D6C0883909F4C7C0A8F4D2
:10096000883709F467C038F4883609F463C08037E3
:1009700009F460C0C9C0883809F4B8C0803909F4E6
:100980005FC0803809F0C0C05BC0803B09F486C0FE
:1009900038F4803A09F466C0883A09F47FC0B4C0DC
:1009A000803C09F4A7C0883C09F4A4C0883B09F442
:1009B0008AC0AAC08091BC0210C09091BB028091F5
:1009C000BA02981770F5E091BB0281E08E0F809318
:1009D000BB02F0E0E656FD4F80818093BB0085ECC2
:1009E00086C0809399028EC0E091BB0281E08E0F99
:1009F0008093BB028091BB00F0E0E656FD4F808300
:100A00009091BB028091BA026EC0E091BB0281E07E
:100A10008E0F8093BB028091BB00F0E0E656FD4F45
:100A200080838091590181116DC081E080935801CC
:100A300084EA61C083E080935A0110929802CFCF7C
:100A400080919802803208F051C0E091980281E0D4
:100A50008E0F809398028091BB00F0E0E858FD4F24
:100A60008083BDCF85EC8093BC0010925A018091A9
:100A70009802803230F4E0919802F0E0E858FD4F9F
:100A800010826091980270E0E0915401F09155015C
:100A900088E792E009951092980236C084E080932E
:100AA0005A011092770210927602E0915601F0916D
:100AB0005701099580917602811105C081E08093EC
:100AC000760210925602E091770281E08E0F8093B9
:100AD0007702F0E0EA5AFD4F80818093BB0090914D
:100AE000770280917602981708F479CF85E8809391
:100AF000BC000AC085EC8093BC0010925A0104C06F
:100B0000109299020E94B700FF91EF91BF91AF91AF
:100B10009F918F917F916F915F914F913F912F9115
:100B20000F900FBE0F901F9018951F920F920FB647
:100B30000F9211242F933F934F935F936F937F9363
:100B40008F939F93AF93BF93EF93FF93E0916701D0
:100B5000F09168010995FF91EF91BF91AF919F913D
:100B60008F917F916F915F914F913F912F910F9056
:100B70000FBE0F901F901895DF92EF92FF920F9388
:100B80001F93CF93DF93EC01D62EE72EF42E122F76
:100B90000E94970360E4CE010E941103CE010E94DF
:100BA0007403CE010E949703612F63706054CE01DD
:100BB0000E9411030D2D1E2DC8018F0D911D7C016A
:100BC0000E151F0539F0F80161918F01CE010E94C9
:100BD0001103F6CFCE010E947403CE010E94970349
:100BE0006A816058CE010E941103CE01DF91CF913E
:100BF0001F910F91FF90EF90DF900C947403EF9290
:100C0000FF920F931F93CF93DF93EC017B01CB01F6
:100C100093709E838D8360E070E0CE010E9470022D
:100C200000E010E08C81882369F0C701002E02C02B
:100C3000880F991F0A94E2F7BC016627727091FF32
:100C40000FC00CC0C701002E02C0969587950A946C
:100C5000E2F7BC016170772780FF02C06FEF70E0A0
:100C6000CE010E9470020F5F1F4F0A301105D1F6AE
:100C700060E070E0CE010E94700260E070E0CE01A2
:100C80000E94700260E08A810E945B0883E290E02B
:100C90000197F1F714E061E08A810E945B0860E04F
:100CA0008A810E945B081150B1F7DF91CF911F91AB
:100CB0000F91FF90EF9008951F920F920FB60F9231
:100CC00011240F931F932F933F934F935F936F9331
:100CD0007F938F939F93AF93BF93CF93EF93FF93A4
:100CE000C0912902C130E9F482E00E9432088C01EF
:100CF00083E00E943208801791071CF4C0937403AC
:100D00000CC082E00E9432088C0183E00E9432080D
:100D10000817190734F410927403C09375031092E6
:100D20002902FF91EF91CF91BF91AF919F918F9148
:100D30007F916F915F914F913F912F911F910F91F3
:100D40000F900FBE0F901F901895FC01538D448D8E
:100D5000252F30E0842F90E0821B930B541710F066
:100D6000CF96089501970895FC01918D828D981773
:100D700061F0828DDF01A80FB11D5D968C91928D7F
:100D80009F5F9F73928F90E008958FEF9FEF08957C
:100D9000FC01918D828D981731F0828DE80FF11D45
:100DA000858D90E008958FEF9FEF0895FC01918D60
:100DB000228D892F90E0805C9F4F821B91098F7359
:100DC0009927089580E090E0892B29F00E9466021F
:100DD00081110C9400000895833081F028F4813053
:100DE00099F08230A1F008958730A9F08830B9F0E9
:100DF0008430D1F4809180008F7D03C08091800089
:100E00008F7780938000089584B58F7702C084B572
:100E10008F7D84BD08958091B0008F7703C080914D
:100E2000B0008F7D8093B00008953FB7F894809113
:100E30007B0390917C03A0917D03B0917E0326B546
:100E4000A89B05C02F3F19F00196A11DB11D3FBF02
:100E5000BA2FA92F982F8827820F911DA11DB11D90
:100E6000BC01CD0142E0660F771F881F991F4A958C
:100E7000D1F7089549E050E06AE471E08BEC92E02C
:100E80000C948D007F928F929F92AF92BF92CF92DF
:100E9000DF92EF92FF920F931F93CF93DF9300D0D7
:100EA00000D0CDB7DEB77C019B01942E06E211E0A5
:100EB000FE0131967724739440E05F018FE3882E22
:100EC000D801DE90CE908D01C901B6010E94521664
:100ED0006115710551F4911004C0772011F0433071
:100EE00011F4808213C0108211C0A62FAF70B0E041
:100EF000A25FBE4F8C918083C69EC001C79E900D9D
:100F0000D69E900D1124281B390B712C4F5F319602
:100F10004430B1F620E0B501C7010E94BC050F9036
:100F20000F900F900F90DF91CF911F910F91FF9035
:100F3000EF90DF90CF90BF90AF909F908F907F9079
:100F40000895FC01848DDF01A80FB11DA35ABF4F86
:100F50002C91848D90E001968F739927848FA689B8
:100F6000B7892C93A089B1898C91837080648C930C
:100F7000938D848D981306C00288F389E02D8081BB
:100F80008F7D80830895EF92FF920F931F93CF93ED
:100F9000DF93EC0181E0888F9B8D8C8D981305C0C9
:100FA000E889F989808185FD26C0F62E0B8D10E039
:100FB0000F5F1F4F0F731127E02E8C8DE8120CC0AE
:100FC0000FB607FCFACFE889F989808185FFF5CF54
:100FD000CE010E94A107F1CF8B8DFE01E80FF11D1C
:100FE000E35AFF4FF0829FB7F8940B8FEA89FB8991
:100FF000808180620AC09FB7F894EE89FF89608380
:10100000E889F98980818370806480839FBF81E053
:1010100090E0DF91CF911F910F91FF90EF90089595
:10102000CF93DF93EC01888D8823C9F0EA89FB898F
:10103000808185FD05C0A889B9898C9186FD0FC086
:101040000FB607FCF5CF808185FFF2CFA889B9895B
:101050008C9185FFEDCFCE010E94A107E7CFDF91F4
:10106000CF910895CF93DF93282F30E0F901E25517
:10107000FF4F8491F901E656FF4FD491F901EA57E9
:10108000FF4FC491CC2391F081110E94EC06EC2F0C
:10109000F0E0EE0FFF1FE458FF4FA591B491EC91E3
:1010A000ED2381E090E021F480E002C080E090E058
:1010B000DF91CF9108951F93CF93DF93282F30E0D6
:1010C000F901E255FF4F8491F901E656FF4FD491A3
:1010D000F901EA57FF4FC491CC23C1F0162F8111BB
:1010E0000E94EC06EC2FF0E0EE0FFF1FEE58FF4FD2
:1010F000A591B4919FB7F894111104C08C91D0952B
:10110000D82302C0EC91DE2BDC939FBFDF91CF91FF
:101110001F910895CF93DF9390E0FC01E656FF4FB7
:101120002491FC01EA57FF4F8491882361F190E0FC
:10113000880F991FFC01E859FF4FC591D491FC011C
:10114000EE58FF4FA591B491611109C09FB7F89473
:101150008881209582238883EC912E230BC06230F6
:1011600061F49FB7F8948881322F30958323888368
:10117000EC912E2B2C939FBF06C08FB7F894E8817B
:101180002E2B28838FBFDF91CF910895CF93DF93CC
:10119000CDEBD2E08E836F8396E0988791E09D87B8
:1011A00060E00E948A0861E08E810E945B081986D7
:1011B0001A861B861C86DF91CF9108958E3008F029
:1011C0008E508770806480937C0080917A00806468
:1011D00080937A0080917A0086FDFCCF8091780020
:1011E0002091790090E0922B08958F929F92AF9278
:1011F000BF92CF92DF92EF92FF926B017C010E942F
:1012000015074B015C01C114D104E104F104F1F0B4
:101210000E941507DC01CB0188199909AA09BB09AD
:10122000883E9340A105B10570F321E0C21AD108B0
:10123000E108F10888EE880E83E0981EA11CB11C1D
:10124000C114D104E104F10419F7DDCFFF90EF9050
:10125000DF90CF90BF90AF909F908F9008952FB761
:10126000F89460917703709178038091790390915D
:101270007A032FBF0895EF92FF920F931F93CF939E
:10128000DF9361E08091C3020E945B086AEF70E027
:1012900080E090E00E94F5080E942F090091C602AC
:1012A0001091C7022091C8023091C90260177107DE
:1012B0008207930740F41092C6021092C702109260
:1012C000C8021092C9022091CA02211115C00091D2
:1012D000C6021091C7022091C8023091C902DC01F8
:1012E000CB01801B910BA20BB30B803D9740A10556
:1012F000B10510F481E07EC01092CA020E942F094D
:101300006093C6027093C7028093C8029093C9028B
:101310001092C1021092C0021092BF021092BE023F
:101320001092BD0261E08091C3020E948A0860E0D1
:101330008091C3020E945B0864E170E080E090E06D
:101340000E94F508F89461E08091C3020E945B0856
:101350008BE990E00197F1F760E08091C3020E9471
:101360008A0810E081E0C0E0D0E0E82EF12C809106
:10137000C3020E9432088E159F0519F4DF5FDF3F1C
:10138000B1F78091C3020E943208DF3FC1F0C43040
:1013900098F0C0FD11C0E12FE695E695E695F0E0E6
:1013A000E354FD4F9081990F90832091C5022D1732
:1013B00010F4916090831F5FCF5FC535A9F67894D4
:1013C0001832B8F02091C10230E04091BD02809106
:1013D000BE0290E0840F911D4091BF02840F911DC9
:1013E0004091C002840F911D99272817390709F4ED
:1013F00081CF80E0DF91CF911F910F91FF90EF900F
:1014000008951F920F920FB60F9211242F933F93BE
:101410008F939F93AF93BF938091770390917803BD
:10142000A0917903B0917A033091760323E0230FE2
:101430002D3720F40196A11DB11D05C026E8230F0C
:101440000296A11DB11D209376038093770390939C
:101450007803A0937903B0937A0380917B039091F2
:101460007C03A0917D03B0917E030196A11DB11D67
:1014700080937B0390937C03A0937D03B0937E03C2
:10148000BF91AF919F918F913F912F910F900FBE80
:101490000F901F901895CF92DF92EF92FF920F93CB
:1014A0001F93E82FF92F05C00150110921093109B7
:1014B00061F1908196239417B9F305C00150110989
:1014C0002109310911F1908196239413F7CFC12C92
:1014D000D12CE12CF12C0AC08FEFC81AD80AE80AE7
:1014E000F80A0C151D052E053F0579F0808186232D
:1014F000841791F36C2D7D2D8E2D9F2D1F910F91B3
:10150000FF90EF90DF90CF90089560E070E080E072
:1015100090E01F910F91FF90EF90DF90CF90089592
:10152000CF93DF93CDB7DEB762970FB6F894DEBFE7
:101530000FBECDBF789484B5826084BD84B58160D0
:1015400084BD85B5826085BD85B5816085BD80918E
:101550006E00816080936E00109281008091810006
:1015600082608093810080918100816080938100FE
:10157000809180008160809380008091B1008460C0
:101580008093B1008091B00081608093B000809121
:101590007A00846080937A0080917A0082608093E0
:1015A0007A0080917A00816080937A0080917A003D
:1015B000806880937A001092C10010925E011092B0
:1015C0005D0110925C0110925B0110925A0181E062
:1015D000809359011092580161E082E10E945B08FA
:1015E00061E083E10E945B088091B9008E7F809367
:1015F000B9008091B9008D7F8093B90088E4809311
:10160000B80085E48093BC0089EE90E09093570188
:101610008093560185EF90E090935501809354019B
:1016200088E08093BA008DE292E09093600180930D
:101630005F0181E891E0909362018093610141E054
:1016400050E069EA72E080E00E94EF03EE24E39448
:10165000F12C20910A0130910B0140910C01509125
:101660000D012F87388B498B5A8B4AE3442E512C1E
:10167000612C712C8091B2019091B301049709F013
:1016800069C20091B0011091B1010115110509F075
:1016900061C2F092B101E092B0018091A6019091F7
:1016A000A7018130910539F48091A8010E94320888
:1016B0008093A5014FC28230910529F46091AA015F
:1016C0008091A80128C08330910581F48091A80100
:1016D0000E94DE089C0197FF02C021503F4F3093CB
:1016E000910160E071E00E945216F7C384309105C9
:1016F00009F05EC00091AA011091AB01C090A80151
:10170000D090A90161E08C2D0E948A080115110575
:1017100029F460E08C2D0E945B081CC20F3F11056C
:1017200009F444C0F601FF27E255FF4FE491E3308E
:10173000F9F048F4E130B9F0E230A1F584B5806207
:1017400084BD08BD07C2E730E9F0E83019F1E430A4
:1017500049F58091800080628093800010938B0017
:1017600000938A00F7C184B5806884BD07BDF2C1CB
:10177000809180008068809380001093890000939E
:101780008800E8C18091B00080688093B000009329
:10179000B300E0C18091B00080628093B0000093FC
:1017A000B400D8C1003811050CF4B3CF61E0B2CF5A
:1017B0008530910529F46091AA018091A8016BC13F
:1017C0008730910509F061C0C090A801D090A901AF
:1017D000D0922802C092270261E08C2D0E948A08D4
:1017E00060E08C2D0E945B0883E090E00197F1F7A8
:1017F00061E08C2D0E945B088FE090E00197F1F78B
:1018000060E08C2D0E945B0860E08C2D0E948A08AD
:10181000C6019927FC01E656FF4F6491FC01EA5787
:10182000FF4FE491F0E0EE0FFF1FE458FF4F85916A
:10183000949100E412E42FE030E0462F0E944B0A1E
:10184000611571058105910551F0DC01CB0101960F
:10185000A11DB11D4C015D013FE0B32203C0812CED
:10186000912C5401C501B40120E03AE340E050E07E
:101870000E94661620939101C501B401A301920153
:101880000E9466162093920165C18830910551F43B
:1018900081E08093910182E08093920187E08093C0
:1018A000930158C18832910509F0C1C080918E0121
:1018B00090918F01892B09F44DC18091AA019091DB
:1018C000AB01009711F46BE009C08130910511F470
:1018D00066E104C00297029728F465E18091A801AF
:1018E0000E94C6080E943B098823B9F18091C40276
:1018F0008B3029F090F18551823048F02EC06091F4
:10190000BF0270E080E090E00E9457152CC0D0909C
:10191000BF026D2D6F7770E080E090E00E94591556
:1019200020E030E040E853E40E94E5154B015C0103
:101930006091C00270E080E090E00E945915A5011E
:1019400094010E94791420E030E040E251E40E94CA
:10195000E514D7FE08C0905806C00E943A0760E020
:1019600070E080EC9FE76D837E838F8398870E9471
:101970003B09882389F18091C4028B3029F160F101
:101980008551823048F56091BD0270E080E090E0C2
:101990000E94571520E030E040E853E40E94E5152E
:1019A0004B015C016091BE0270E080E090E00E941B
:1019B0005915A50194010E94791420E030E040E21D
:1019C00051E40E94E5140EC06091BD0270E080E019
:1019D00090E00E94571506C00E943A0760E070E050
:1019E00080EC9FE769837A838B839C831092260225
:1019F00010922502FE0135960F5F1F4F8191D8018D
:101A0000A758BE4F8C9304301105B1F7FE013196F3
:101A10000F5F1F4F8191D801A758BE4F8C9308309C
:101A20001105B1F7109326020093250277C0823387
:101A30009105A1F591E02091AA013091AB01232BF2
:101A400009F490E02091A8013091A90181E0820F72
:101A5000A9014250510967E0649F8001659F100D04
:101A6000112405501E4F482F50E0D80111965C9369
:101A70004E93332713963C932E93129714969C9370
:101A8000149716961C921E92159761E00E948A0880
:101A900061E0F80182810E948A085CC0833391056D
:101AA00009F041C02091A8013091A90122503109CB
:101AB00087E0829FF001839FF00D1124E550FE4FD7
:101AC00080819181892B09F000C144C08A30910541
:101AD00009F017C580918E0190918F010197D1F582
:101AE00080917701809390018091BE019091BF0118
:101AF000A091C001B091C10180939101492F5A2F4B
:101B00006B2F77274093BE015093BF016093C001B4
:101B10007093C10140939201A093930110928F01A1
:101B200010928E0117C08433910509F001C12091F4
:101B3000A8013091A9012250310987E0829FF0016C
:101B4000839FF00D1124E550FE4F80819181892BF8
:101B500009F0D2C08091C6019091C701892BD9F1BB
:101B60000E942F090091C2011091C3012091C4016C
:101B70003091C501DC01CB01801B910BA20BB30B93
:101B800081339547A105B10530F1F0927801E092DB
:101B9000770180916E0190916F01A0917001B091D9
:101BA00071018093BE019093BF01A093C001B093D7
:101BB000C10110926E0110926F011092700110928B
:101BC00071010E942F096093C2017093C301809339
:101BD000C4019093C5018091BC019091BD01892BF6
:101BE00039F180917503813019F52091740380914A
:101BF000B4019091B501213049F4019689319105E4
:101C000054F01092B5011092B40109C0019797FFEA
:101C100002C088E190E09093B5018093B40181E027
:101C200080936C018091B40180936D0110927503D3
:101C30008091B6019091B701892B09F443C00E94AD
:101C40002F090091B8011091B9012091BA0130918A
:101C5000BB01DC01CB01801B910BA20BB30B813DBF
:101C60009740A105B10570F18091750190917601C1
:101C70004EE1489F9001499F300D112481E08093EF
:101C80006901C90169E470E00E945216CB0160E06D
:101C900071E00E94521680936A01C90160E079E404
:101CA0000E94521660936B0110927601109275019A
:101CB0000E942F096093B8017093B9018093BA0113
:101CC0009093BB010E94E206D5CC81E04091AA012D
:101CD0005091AB01452B09F480E0848347E0429F9B
:101CE000C001439F900D112485509E4FDC01159635
:101CF0006D917C91169719C08091AA018B3008F0E4
:101D00008AE06FEF7FEF02C0660F771F8A95E2F7D8
:101D10006095709547E0429FC001439F900D11244C
:101D200085509E4FFC01768365830E94FF0512CF8C
:101D30008533910599F42091A8013091A901225091
:101D4000310987E0829FF001839FF00D1124E55057
:101D5000FE4F80819181892BC9F4FCCE8633910599
:101D600009F07CC02091A8013091A90122503109CD
:101D700087E0829FF001839FF00D1124E550FE4F14
:101D800080819181892B09F044C0E4CE4091AC015F
:101D90005091AD019091AA01992309F45DC09B3047
:101DA00008F09AE09150452BA9F087E0829FD0017E
:101DB000839FB00D1124A550BE4FB70102C0660F1E
:101DC000771F9A95E2F715968D919C911697682B3F
:101DD000792B16C0B70102C0660F771F9A95E2F7FC
:101DE0006095709587E0829FD001839FB00D11248C
:101DF000A550BE4F15968D919C9116976823792317
:101E000087E0829FD001839FB00D1124A550BE4F63
:101E10001DC09091AA01992309F444C09B3008F099
:101E20009AE09150B70102C0660F771F9A95E2F7CA
:101E300087E0829FD001839FB00D1124A550BE4F33
:101E400015968D919C9116976827792716967C9305
:101E50006E931597CF0169CF91E0A4CF8733910599
:101E600019F52091A8013091A9012250310947E0CC
:101E7000429FC001439F900D112485509E4FDC016D
:101E80002D913C91232B09F465CEF091AC01FA879A
:101E900019866091AA017091AB0129853A85622764
:101EA000732743CF91E0BDCF88339105C9F480916A
:101EB000A8019091A901029727E0289FF001299F8E
:101EC000F00D1124E550FE4F80819181892B09F49A
:101ED00041CE9581868190939101809392013ACE73
:101EE0008634910531F58091A8019091A9018C016A
:101EF000025011099801220F331F020F131F0751BF
:101F00001E4FF801808391E0980F918360E00E945A
:101F10008A0860E0D80111968C910E948A0860E0DE
:101F2000F80180810E945B0860E0D80111968C91D5
:101F3000F2CB8734910589F48091A8019091A90191
:101F40000297FC01EE0FFF1FDF01A80FB91FA75179
:101F5000BE4F2C91211123C0FDCD8834910569F528
:101F60008091A8019091A90102979C01220F331F33
:101F7000820F931F87519E4FFC012081222309F479
:101F8000E9CD3091AC013C871B866091AA0170912C
:101F9000AB014B855C856427752740E02FC02091FD
:101FA000AA01283040F4285F8E0F9F1FFC01E751E3
:101FB000FE4F2283CFCD2FE0F7CF8934910509F56D
:101FC0008091A8019091A90102979C01220F331FD3
:101FD000820F931F87519E4FDC012C91222309F41D
:101FE000B9CD5091AC015E871D866091AA017091B8
:101FF000AB01AD85BE856A277B2741E00E94420781
:10200000A9CD8A349105C9F48091A8019091A901C4
:1020100002979C01220F331F820F931F87519E4FFF
:10202000FC012081222309F495CDE091AC01EF70F1
:10203000F0E0E25FFE4F208116C08B349105C1F4C1
:102040008091A8019091A90102979C01220F331F52
:10205000820F931F87519E4FDC012C91222309F49C
:1020600079CD2091AC0129832091AA0141E027C3B9
:102070008C34910509F044C0E091A801F091A901C8
:102080003297CF01880F991FE80FF91FE751FE4FD4
:102090008081882309F45ECD8091AA019091AB01E3
:1020A0006AE070E00E9452166F70A62FB0E0A25F47
:1020B000BE4F9C9199838F70A82FB0E0A25FBE4F56
:1020C0008C9180688A838091AC019091AD016AE027
:1020D00070E00E9452166F70A62FB0E0A25FBE4F54
:1020E0009C919B838F70A82FB0E0A25FBE4F8C9114
:1020F0008C8320E044E0BE016F5F7F4FCF01E2C2DE
:102100008D34910599F5E091A801F091A9013297DC
:10211000CF01880F991FE80FF91FE751FE4F80810B
:10212000882309F417CD9090AA010091AC01109179
:10213000AD01000F111F000F111FC12CD12C5F0129
:10214000C016D1060CF006CD892D0E94DE0840E0B5
:10215000BC01C5010E9442076AEF70E080E090E098
:102160000E94F508BFEFCB1ADB0AEACF8E34910547
:10217000D1F48091A8019091A90102979C01220FAE
:10218000331F820F931F87519E4FFC012081222312
:1021900009F4E0CC2F85388949895A8929833A8303
:1021A0004B835C838AC28F349105B1F48091A8017E
:1021B0009091A90102979C01220F331F820F931F58
:1021C00087519E4FDC012C91222309F4C3CC198244
:1021D0001A821B821C8271C28A35910569F4809132
:1021E000A8018093E6018091AA018093E701809184
:1021F000AC018093E801AECC8B359105B1F46091D0
:10220000A8017091A90141E0460F9B0122503109BC
:1022100055E0529FC001539F900D11242091AA01B7
:1022200088539E4F0E94091495CC8C359105C1F5B9
:102230008090AA019090AB016091A8017091A901D2
:102240009B012250310945E0429FC001439F900D00
:102250001124FC01E853FE4F5F0141E0460F282D99
:10226000CF010E9409141091AC0112FB332430F805
:10227000319411FB222420F8219411701195C12C66
:10228000D12CC814D9040CF065CC012F222D432D7C
:102290006C2DC5010E949113FFEFCF1ADF0AF1CF19
:1022A0008D35910509F05EC0A090AA01B090AB01F8
:1022B0008091A8019091A901029725E0289FF00143
:1022C000299FF00D1124A114B10471F40091E801CB
:1022D0002091E7014091E6016091AC01CF01885364
:1022E0009E4F0E94911336CCE853FE4F8280C12C42
:1022F000D12C912C1E2F3F2EC814D9040CF02ACCBF
:1023000021E0A216B10441F48091AC019091AD019D
:10231000C816D906C1F422C032E0A316B10441F4B4
:102320008091AC019091AD018C159D0564F416C0AF
:1023300043E0A416B10491F48091AC019091AD01F9
:10234000C816D9065CF00091E8012091E7014091A0
:10235000E6016C2D812F932D0E9491135FEFC51A1A
:10236000D50ACACF8E35910509F03FC08091AC01E6
:102370009091AD011816190624F0F092AD01E0928B
:10238000AC018091A8019091A901029725E0289FB6
:10239000F001299FF00D1124E853FE4FA280809098
:1023A000AA019090AB016401B12C1E2F3F2ECA14DC
:1023B000DB040CF0CFCB6091AC017091AD01C60194
:1023C000881999090E945216892B59F40091E80145
:1023D0002091E7014091E6016C2D812F932D0E9401
:1023E00091138FEFC81AD80AE2CF8F35910509F003
:1023F0005BC08091A8019091A901029725E0289FD8
:10240000F001299FF00D1124E853FE4FA280809126
:10241000AC019091AD01B12C892B11F5C12CD12CBF
:102420001E2F9F2ECA14DB040CF094CB8091AA01BE
:102430009091AB01C816D9063CF40091E8012091B7
:10244000E7014091E60103C000E020E040E06C2D90
:10245000812F992D0E9491139FEFC91AD90AE2CFBB
:1024600065011E2F9F2EC114D10409F473CB8091F6
:10247000AA019091AB01D501A81BB90BCA16DB06C6
:102480003CF00091E8012091E7014091E60103C092
:1024900000E020E040E06C2D812F992D0E949113E7
:1024A000B1E0CB1AD108DFCF8E309105B1F441E015
:1024B00050E069EA72E080E00E94EF03F092C70109
:1024C000E092C6010E942F096093C2017093C3017C
:1024D0008093C4019093C5010FC08F30910509F01E
:1024E000F5CAE898ECE8F0E0F0930101E093000110
:1024F0001092C7011092C6011092A7011092A60176
:1025000029CB80319105C1F51092800080E1809344
:10251000810021E0209365018FB780936601F894D4
:1025200040E45FE15093640140936301509387005E
:1025300040938600809166018FBF80918100887FE3
:10254000809381009091810080916501982B9093F8
:102550008100A6E9B2E0B0936801A09367012093DF
:102560006F0090918100892B809381007894F09284
:10257000BD01E092BC01C0CF8131910551F4809141
:102580006F008E7F80936F001092BD011092BC018E
:10259000E1CA82319105F1F460E082E00E948A088C
:1025A00043E050E067E771E080E00E94EF031092A3
:1025B0007601109275010E942F096093B801709303
:1025C000B9018093BA019093BB01F092B701E092F8
:1025D000B60192CF8D30910561F41092B70110923F
:1025E000B601E898ECE8F0E0F0930101E093000117
:1025F00083CF8436910541F58091A8019091A9017E
:102600004091AA015091AB01823008F0A3CA2FEF8C
:10261000240F233008F09ECA9C0133272115310571
:1026200041F02130310551F4109273016BE671E0F5
:1026300007C01092740161E771E002C060E070E0D1
:1026400055270E94EF0386CA85369105B9F480911B
:10265000A8019091A901823008F07CCA813011F064
:10266000E89801C0E998FC01FF27EE0FFF1FE0503A
:10267000FF4F2CE830E0318320836CCA8636910509
:1026800009F068CA8091A8019091A901823008F0F0
:1026900061CA9927009751F0019709F05BCA8091B0
:1026A0007301809372011092730154CA8091740176
:1026B00080937201109274014DCA20E044E0BE0183
:1026C0006F5F7F4F0E94BC0545CAEF92FF920F9348
:1026D0001F93CF93DF93EC01062F18E08BE4E82ED5
:1026E000F12C07FF02C061E001C060E089810E9417
:1026F0005B0860E088810E945B08C7010197F1F7E1
:1027000061E088810E945B08C7010197F1F7000F23
:10271000115039F7DF91CF911F910F91FF90EF90FA
:102720000895AF92BF92CF92DF92EF92FF920F93F4
:102730001F93CF93DF93EC01C62EB42EA22E60E040
:102740000E94651360E0CE010E94651360E0CE0137
:102750000E94651360E0CE010E94651310E08A813B
:10276000181708F03CC023E0129FC00111241C116F
:102770000FC0EB81FC81E80FF91FB082EB81FC8177
:10278000E80FF91FA182EB81FC81E80FF91F02839A
:10279000EB81FC81E80FF91FD280E180F080D7FC4B
:1027A00002C060EE01C060ECD6FE6061E7FE6860CA
:1027B000E6FE6460F7FE6260F6FE6160CE010E9494
:1027C00065136D2DCE010E9465136E2DCE010E9402
:1027D00065136F2DCE010E9465131F5FC0CF60E0AF
:1027E000CE010E94651360E0CE010E94651360E097
:1027F000CE010E94651360E0CE01DF91CF911F9161
:102800000F91FF90EF90DF90CF90BF90AF900C941E
:1028100065130F931F93CF93DF93EC01862F68838B
:1028200049832A8361E00E948A0861E089810E94CD
:102830008A088A8161E070E023E0829FC001112450
:102840000E94C1169C838B8310E08A81181748F47C
:1028500000E020E040E0612FCE010E9491131F5F55
:10286000F4CFDF91CF911F910F910895EBECF2E03F
:102870001382128288EE93E0A0E0B0E08483958317
:10288000A683B7832AE231E03183208325EC30E050
:102890003587248724EC30E03787268720EC30E02A
:1028A000318B208B21EC30E0338B228B22EC30E01B
:1028B000358B248B26EC30E0378B268B118E128ED5
:1028C000138E148EE8E6F3E01382128284839583DC
:1028D000A683B7838CE391E09183808384E0809327
:1028E00068008BB381718BBB8CE080936D00089581
:1028F0005058BB27AA270E9490140C94AB150E9435
:102900009D1538F00E94A41520F039F49F3F19F46A
:1029100026F40C949A150EF4E095E7FB0C949415AC
:10292000E92F0E94BC1558F3BA1762077307840792
:10293000950720F079F4A6F50C94DE150EF4E095D9
:102940000B2EBA2FA02D0B01B90190010C01CA0169
:10295000A0011124FF27591B99F0593F50F4503E14
:1029600068F11A16F040A22F232F342F4427585F06
:10297000F3CF469537952795A795F0405395C9F71E
:102980007EF41F16BA0B620B730B840BBAF09150D6
:10299000A1F0FF0FBB1F661F771F881FC2F70EC075
:1029A000BA0F621F731F841F48F487957795679548
:1029B000B795F7959E3F08F0B0CF9395880F08F034
:1029C0009927EE0F9795879508950E94F9140C9416
:1029D000AB150E94A41558F00E949D1540F029F4F3
:1029E0005F3F29F00C94941551110C94DF150C9451
:1029F0009A150E94BC1568F39923B1F3552391F3FE
:102A0000951B550BBB27AA2762177307840738F05D
:102A10009F5F5F4F220F331F441FAA1FA9F335D0BA
:102A20000E2E3AF0E0E832D091505040E695001C6E
:102A3000CAF72BD0FE2F29D0660F771F881FBB1F28
:102A4000261737074807AB07B0E809F0BB0B802D06
:102A5000BF01FF2793585F4F3AF09E3F510578F032
:102A60000C9494150C94DF155F3FE4F3983ED4F377
:102A7000869577956795B795F7959F5FC9F7880F06
:102A8000911D9695879597F90895E1E0660F771F58
:102A9000881FBB1F621773078407BA0720F0621BE9
:102AA000730B840BBA0BEE1F88F7E0950895E8943A
:102AB00009C097FB3EF490958095709561957F4F86
:102AC0008F4F9F4F9923A9F0F92F96E9BB27939534
:102AD000F695879577956795B795F111F8CFFAF444
:102AE000BB0F11F460FF1BC06F5F7F4F8F4F9F4F75
:102AF00016C0882311F096E911C0772321F09EE8D3
:102B0000872F762F05C0662371F096E8862F70E038
:102B100060E02AF09A95660F771F881FDAF7880F12
:102B20009695879597F9089597F99F6780E870E0E3
:102B300060E008959FEF80EC089500240A94161633
:102B4000170618060906089500240A94121613069B
:102B5000140605060895092E0394000C11F4882329
:102B600052F0BB0F40F4BF2B11F460FF04C06F5F45
:102B70007F4F8F4F9F4F089557FD9058440F551F1B
:102B800059F05F3F71F04795880F97FB991F61F0EF
:102B90009F3F79F087950895121613061406551F66
:102BA000F2CF4695F1DF08C0161617061806991FD2
:102BB000F1CF86957105610508940895E894BB27C7
:102BC00066277727CB0197F908950E94F8150C9492
:102BD000AB150E949D1538F00E94A41520F0952396
:102BE00011F00C9494150C949A1511240C94DF1583
:102BF0000E94BC1570F3959FC1F3950F50E0551FCF
:102C0000629FF001729FBB27F00DB11D639FAA2741
:102C1000F00DB11DAA1F649F6627B00DA11D661F90
:102C2000829F2227B00DA11D621F739FB00DA11DB1
:102C3000621F839FA00D611D221F749F3327A00D6B
:102C4000611D231F849F600D211D822F762F6A2F07
:102C500011249F5750409AF0F1F088234AF0EE0F6C
:102C6000FF1FBB1F661F771F881F91505040A9F799
:102C70009E3F510580F00C9494150C94DF155F3F36
:102C8000E4F3983ED4F3869577956795B795F795D5
:102C9000E7959F5FC1F7FE2B880F911D969587954D
:102CA00097F9089597FB072E16F4009407D077FD47
:102CB00009D00E94851607FC05D03EF490958195B9
:102CC0009F4F0895709561957F4F0895052E97FB4E
:102CD0001EF400940E947D1657FD07D00E9499169D
:102CE00007FC03D04EF40C947D165095409530951A
:102CF00021953F4F4F4F5F4F089590958095709568
:102D000061957F4F8F4F9F4F0895AA1BBB1B51E1C9
:102D100007C0AA1FBB1FA617B70710F0A61BB70B4B
:102D2000881F991F5A95A9F780959095BC01CD01F0
:102D30000895A1E21A2EAA1BBB1BFD010DC0AA1FFC
:102D4000BB1FEE1FFF1FA217B307E407F50720F014
:102D5000A21BB30BE40BF50B661F771F881F991F8F
:102D60001A9469F760957095809590959B01AC01D8
:102D7000BD01CF010895EE0FFF1F0590F491E02DE6
:102D800009940F931F93CF93DF93869F8001879FB2
:102D9000100D969F100D1124C8010E94DD16EC0144
:102DA000009729F0A80160E070E00E940318CE01AE
:102DB000DF91CF911F910F9108950F931F93CF93A0
:102DC000DF938230910510F482E090E0E09181037E
:102DD000F091820320E030E0A0E0B0E0309719F1FC
:102DE000408151810281138148175907C8F0841727
:102DF000950769F4109731F012960C931297139679
:102E00001C9327C0009381031093820322C02115D5
:102E1000310519F04217530718F49A01BD01EF016B
:102E2000DF01F801DBCF21153105F9F0281B390B43
:102E30002430310580F48A819B816115710521F070
:102E4000FB019383828304C0909382038093810368
:102E5000FE01329644C0FE01E20FF31F819391936D
:102E600022503109398328833AC020917F03309161
:102E70008003232B41F42091060130910701309308
:102E8000800320937F0320910401309105012115D7
:102E9000310541F42DB73EB7409108015091090129
:102EA000241B350BE0917F03F0918003E217F307B9
:102EB000A0F42E1B3F0B2817390778F0AC014E5FAA
:102EC0005F4F2417350748F04E0F5F1F5093800364
:102ED00040937F038193919302C0E0E0F0E0CF0143
:102EE000DF91CF911F910F910895CF93DF930097BA
:102EF00009F481C0FC01329713821282A0918103F0
:102F0000B0918203109781F420813181820F931F49
:102F100020917F03309180032817390751F5F093F2
:102F20008003E0937F0367C0ED0120E030E0CE171F
:102F3000DF0740F44A815B819E0141155105F1F0A4
:102F4000EA01F5CFD383C28340815181840F951F5D
:102F5000C817D90759F488819981840F951F029663
:102F6000918380838A819B8193838283211531059C
:102F700029F4F0938203E09381033DC0E901FB83D0
:102F8000EA8349915991C40FD51FEC17FD0761F4ED
:102F900080819181840F951F0296E901998388832E
:102FA000828193819B838A83E0E0F0E012968D9189
:102FB0009C911397009719F0FD01DC01F7CF8D91DB
:102FC0009C9111979D012E5F3F4F820F931F20917F
:102FD0007F03309180032817390769F4309729F46B
:102FE000109282031092810302C013821282B09366
:102FF0008003A0937F03DF91CF91089581E090E05B
:10300000F8940C940A18DC0101C06D9341505040B3
:08301000E0F70895F894FFCFEA
:103018008C008C00000083038000FFFFFFFF3F0649
:103028005B4F666D7D077F6F777C395E7971010034
:103038000A006400E80300000000C3078D00A5062D
:103048001008D606B406C8060000000056014B0159
:1030580068011F0143012F01200152656164206648
:0430680061696C002E
:00000001FF
